:100000000C9446000C9450000C9450000C9450003A
:100010000C9450000C9450000C9450000C94500020
:100020000C9450000C9450000C9450000C94500010
:100030000C9450000C9450000C9450000C94500000
:100040000C9450000C9450000C9450000C945000F0
:100050000C9450000C9450000C9450000C945000E0
:100060000C9450000C9450006F7572206C636420E7
:10007000776F726B730053414D53554E47204C417F
:10008000574E204D414E41474552000011241FBE9E
:10009000CFEFD8E0DEBFCDBF0E94E5000C94030196
:1000A0000C9400008BB18F708BB98AB18F708AB9B4
:1000B00088B1877D88B9449A459A83E08A95F1F79B
:1000C000000089B14598459A459887FDF5CF8AB1DA
:1000D000806F8AB908952BB1982F907F922B9BB98E
:1000E0009BB18F6089238BB9459A459861110C9417
:1000F00052000895CF93C82F98B19F7C98B9439A26
:1001000060E00E946B0061E08C2F8295807FCF9130
:100110000C946B00CF93DF93C82FD62F98B1977CA8
:1001200098B960E00E946B006D2F8C2F8295807FC4
:10013000DF91CF910C946B000F931F93CF93DF93BC
:100140001F92CDB7DEB7162F61E0806879830E94D9
:100150008A00E12F7981F72F84918F010F5F1F4F64
:10016000882321F00E947A00F801F6CF0F90DF91EA
:10017000CF911F910F9108958FEF9FE80197F1F7AD
:1001800000C0000060E080E30E946B0086E696E21B
:100190000197F1F7000060E080E30E946B0086E2C7
:1001A00091E00197F1F700C0000060E080E30E9459
:1001B0006B0061E080E20E946B0061E088E20E94D7
:1001C0008A0061E08FE00C948A008AB1806F8AB95E
:1001D00087B1886387B90E94BC002FEF8FEF9BE344
:1001E000215080409040E1F700C0000066E770E0D9
:1001F00080E090E00E949C0068E670E080E490E07F
:0A0200000E949C00FFCFF894FFCF8E
:00000001FF
