:100000000C9434000C943E000C943E000C943E0082
:100010000C943E000C943E000C943E000C943E0068
:100020000C943E000C943E000C943E000C943E0058
:100030000C943E000C943E000C943E000C943E0048
:100040000C943E000C943E000C943E000C943E0038
:100050000C943E000C943E000C943E000C943E0028
:100060000C943E000C943E0011241FBECFEFD8E04C
:10007000DEBFCDBF0E9466000C946B000C940000A4
:1000800082E080937C00EAE7F0E087E8808380816B
:100090008064808384E080937E00089580917A005C
:1000A00086FDFCCF209178008091790090917A00B4
:1000B000906490937A0090E0982F8827820F911D8A
:1000C000089578948AB18C608AB908950E9440009E
:0A00D0000E944E00FDCFF894FFCF10
:00000001FF
