:100000000C944D000C9457000C9457000C9457001E
:100010000C9457000C9457000C9457000C94570004
:100020000C9457000C9457000C9457000C945700F4
:100030000C9457000C9457000C9457000C945700E4
:100040000C9457000C9457000C9457000C945700D4
:100050000C9457000C9457000C9457000C945700C4
:100060000C9457000C9457003E3E205553432045B6
:10007000453435394C203C3C373839303132333413
:10008000003E3E2061743332382D352E632068697E
:10009000203C3C3930313233340011241FBECFEFC5
:1000A000D8E0DEBFCDBF0E94EC000C940C010C9494
:1000B00000008BB18F708BB98AB18F708AB988B10B
:1000C000877D88B9449A459A83E08A95F1F70000C4
:1000D00089B14598459A459887FDF5CF8AB1806FDB
:1000E0008AB908952BB1982F907F922B9BB99BB121
:1000F0008F6089238BB9459A459861110C945900FA
:100100000895CF93C82F98B19F7C98B9439A60E027
:100110000E94720061E08C2F8295807FCF910C94B9
:100120007200CF93DF93C82FD62F98B1977C98B9E0
:1001300060E00E9472006D2F8C2F8295807FDF918E
:10014000CF910C9472000F931F93CF93DF931F9264
:10015000CDB7DEB7162F61E0806879830E949100E9
:10016000E12F7981F72F84918F010F5F1F4F882333
:1001700021F00E948100F801F6CF0F90DF91CF911E
:100180001F910F9108958FEF9FE80197F1F700C03D
:10019000000060E080E30E94720086E696E201972C
:1001A000F1F7000060E080E30E94720086E291E0D7
:1001B0000197F1F700C0000060E080E30E94720048
:1001C00061E080E20E94720061E088E20E9491009A
:1001D00061E08FE00C9491008AB1806F8AB987B199
:1001E000886387B90E94C3002FEF8FEF9BE32150F4
:1001F00080409040E1F700C0000061E870E080E0DE
:1002000090E00E94A30068E670E080E490E00E9425
:0C021000A3005F9A5F98FDCFF894FFCF29
:00000001FF
