:100000000C9434000C9446000C9446000C9446006A
:100010000C9446000C9446000C9446000C94460048
:100020000C9446000C9446000C9446000C94460038
:100030000C9446000C9446000C9446000C94460028
:100040000C9446000C9446000C9446000C94460018
:100050000C9446000C9446000C9446000C94460008
:100060000C9446000C94460011241FBECFEFD8E03C
:10007000DEBFCDBF11E0A0E0B1E001C01D92A13014
:10008000B107E1F70E9466000C9473000C94000025
:100090009093C5008093C400E1ECF0E0808188601B
:1000A000808380818061808386E08093C200089590
:1000B0009091C00095FFFCCF8093C6000895809179
:1000C000C00087FFFCCF8091C60008958FE390E0C9
:1000D0000E944800389A40980E945F008093000177
:0A00E0000E945800F9CFF894FFCFFA
:00000001FF
